{
    "contractName": "TodoList",
    "abi": [
        {
            "inputs": [
                {
                    "internalType": "string",
                    "name": "_description",
                    "type": "string"
                }
            ],
            "name": "addTask",
            "outputs": [],
            "stateMutability": "nonpayable",
            "type": "function"
        },
        {
            "inputs": [
                {
                    "internalType": "uint256",
                    "name": "_index",
                    "type": "uint256"
                }
            ],
            "name": "deleteTask",
            "outputs": [],
            "stateMutability": "nonpayable",
            "type": "function"
        },
        {
            "inputs": [
                {
                    "internalType": "uint256",
                    "name": "_index",
                    "type": "uint256"
                }
            ],
            "name": "markCompleted",
            "outputs": [],
            "stateMutability": "nonpayable",
            "type": "function"
        },
        {
            "inputs": [
                {
                    "internalType": "uint256",
                    "name": "",
                    "type": "uint256"
                }
            ],
            "name": "tasks",
            "outputs": [
                {
                    "internalType": "bool",
                    "name": "completed",
                    "type": "bool"
                },
                {
                    "internalType": "string",
                    "name": "description",
                    "type": "string"
                }
            ],
            "stateMutability": "view",
            "type": "function"
        }
    ],
    "bytecode": "608060405234801561001057600080fd5b5061059a806100206000396000f3fe608060405234801561001057600080fd5b506004361061004c5760003560e01c8063560f31921461005157806367238562146100665780638d97767214610079578063cac5c512146100a3575b600080fd5b61006461005f3660046102ce565b6100b6565b005b6100646100743660046102fd565b6100f3565b61008c6100873660046102ce565b610185565b60405161009a9291906103ae565b60405180910390f35b6100646100b13660046102ce565b610241565b600081815481106100c9576100c9610406565b600091825260208220600290910201805460ff19168155906100ee6001830182610278565b505050565b60408051808201909152600080825260208201838152815460018101835591805282517f290decd9548b62a8d60345a988386fc84ba6bc95484008f6362f93160ef3e5636002909302928301805460ff1916911515919091178155905190917f290decd9548b62a8d60345a988386fc84ba6bc95484008f6362f93160ef3e564019061017f90826104a4565b50505050565b6000818154811061019557600080fd5b60009182526020909120600290910201805460018201805460ff9092169350906101be9061041c565b80601f01602080910402602001604051908101604052809291908181526020018280546101ea9061041c565b80156102375780601f1061020c57610100808354040283529160200191610237565b820191906000526020600020905b81548152906001019060200180831161021a57829003601f168201915b5050505050905082565b60016000828154811061025657610256610406565b60009182526020909120600290910201805460ff191691151591909117905550565b5080546102849061041c565b6000825580601f10610294575050565b601f0160209004906000526020600020908101906102b291906102b5565b50565b5b808211156102ca57600081556001016102b6565b5090565b6000602082840312156102e057600080fd5b5035919050565b634e487b7160e01b600052604160045260246000fd5b60006020828403121561030f57600080fd5b813567ffffffffffffffff8082111561032757600080fd5b818401915084601f83011261033b57600080fd5b81358181111561034d5761034d6102e7565b604051601f8201601f19908116603f01168101908382118183101715610375576103756102e7565b8160405282815287602084870101111561038e57600080fd5b826020860160208301376000928101602001929092525095945050505050565b821515815260006020604081840152835180604085015260005b818110156103e4578581018301518582016060015282016103c8565b506000606082860101526060601f19601f830116850101925050509392505050565b634e487b7160e01b600052603260045260246000fd5b600181811c9082168061043057607f821691505b60208210810361045057634e487b7160e01b600052602260045260246000fd5b50919050565b601f8211156100ee57600081815260208120601f850160051c8101602086101561047d5750805b601f850160051c820191505b8181101561049c57828155600101610489565b505050505050565b815167ffffffffffffffff8111156104be576104be6102e7565b6104d2816104cc845461041c565b84610456565b602080601f83116001811461050757600084156104ef5750858301515b600019600386901b1c1916600185901b17855561049c565b600085815260208120601f198616915b8281101561053657888601518255948401946001909101908401610517565b50858210156105545787850151600019600388901b60f8161c191681555b5050505050600190811b0190555056fea2646970667358221220a5219de5c1cf8dfc0fdb05d6ba12f44ff9a4ab6e90f2010745cb6212282b31f364736f6c63430008110033",
    "sourcePath": "c:/Users/might/Documents/myproject/contracts/todo.sol",
    "compiler": {
        "name": "solc",
        "version": "0.8.17+commit.8df45f5f"
    },
    "functionHashes": {
        "addTask(string)": "67238562",
        "deleteTask(uint256)": "560f3192",
        "markCompleted(uint256)": "cac5c512",
        "tasks(uint256)": "8d977672"
    },
    "gasEstimates": {
        "creation": {
            "codeDepositCost": "286800",
            "executionCost": "324",
            "totalCost": "287124"
        },
        "external": {
            "addTask(string)": "infinite",
            "deleteTask(uint256)": "infinite",
            "markCompleted(uint256)": "26709",
            "tasks(uint256)": "infinite"
        }
    }
}