{
  "contractName": "TodoList",
  "abi": [
    {
      "inputs": [
        {
          "internalType": "uint256",
          "name": "",
          "type": "uint256"
        }
      ],
      "name": "tasks",
      "outputs": [
        {
          "internalType": "bool",
          "name": "completed",
          "type": "bool"
        },
        {
          "internalType": "string",
          "name": "description",
          "type": "string"
        }
      ],
      "stateMutability": "view",
      "type": "function"
    },
    {
      "inputs": [
        {
          "internalType": "string",
          "name": "_description",
          "type": "string"
        }
      ],
      "name": "addTask",
      "outputs": [],
      "stateMutability": "nonpayable",
      "type": "function"
    },
    {
      "inputs": [
        {
          "internalType": "uint256",
          "name": "_index",
          "type": "uint256"
        }
      ],
      "name": "markCompleted",
      "outputs": [],
      "stateMutability": "nonpayable",
      "type": "function"
    },
    {
      "inputs": [
        {
          "internalType": "uint256",
          "name": "_index",
          "type": "uint256"
        }
      ],
      "name": "deleteTask",
      "outputs": [],
      "stateMutability": "nonpayable",
      "type": "function"
    }
  ],
  "bytecode": "0x608060405234801561001057600080fd5b5061091a806100206000396000f3fe608060405234801561001057600080fd5b506004361061004c5760003560e01c8063560f319214610051578063672385621461006d5780638d97767214610089578063cac5c512146100ba575b600080fd5b61006b60048036038101906100669190610351565b6100d6565b005b610087600480360381019061008291906104c4565b610122565b005b6100a3600480360381019061009e9190610351565b6101a0565b6040516100b19291906105a7565b60405180910390f35b6100d460048036038101906100cf9190610351565b610269565b005b600081815481106100ea576100e96105d7565b5b9060005260206000209060020201600080820160006101000a81549060ff021916905560018201600061011d91906102aa565b505050565b6000604051806040016040528060001515815260200183815250908060018154018082558091505060019003906000526020600020906002020160009091909190915060008201518160000160006101000a81548160ff021916908315150217905550602082015181600101908161019a9190610812565b50505050565b600081815481106101b057600080fd5b90600052602060002090600202016000915090508060000160009054906101000a900460ff16908060010180546101e690610635565b80601f016020809104026020016040519081016040528092919081815260200182805461021290610635565b801561025f5780601f106102345761010080835404028352916020019161025f565b820191906000526020600020905b81548152906001019060200180831161024257829003601f168201915b5050505050905082565b60016000828154811061027f5761027e6105d7565b5b906000526020600020906002020160000160006101000a81548160ff02191690831515021790555050565b5080546102b690610635565b6000825580601f106102c857506102e7565b601f0160209004906000526020600020908101906102e691906102ea565b5b50565b5b808211156103035760008160009055506001016102eb565b5090565b6000604051905090565b600080fd5b600080fd5b6000819050919050565b61032e8161031b565b811461033957600080fd5b50565b60008135905061034b81610325565b92915050565b60006020828403121561036757610366610311565b5b60006103758482850161033c565b91505092915050565b600080fd5b600080fd5b6000601f19601f8301169050919050565b7f4e487b7100000000000000000000000000000000000000000000000000000000600052604160045260246000fd5b6103d182610388565b810181811067ffffffffffffffff821117156103f0576103ef610399565b5b80604052505050565b6000610403610307565b905061040f82826103c8565b919050565b600067ffffffffffffffff82111561042f5761042e610399565b5b61043882610388565b9050602081019050919050565b82818337600083830152505050565b600061046761046284610414565b6103f9565b90508281526020810184848401111561048357610482610383565b5b61048e848285610445565b509392505050565b600082601f8301126104ab576104aa61037e565b5b81356104bb848260208601610454565b91505092915050565b6000602082840312156104da576104d9610311565b5b600082013567ffffffffffffffff8111156104f8576104f7610316565b5b61050484828501610496565b91505092915050565b60008115159050919050565b6105228161050d565b82525050565b600081519050919050565b600082825260208201905092915050565b60005b83811015610562578082015181840152602081019050610547565b60008484015250505050565b600061057982610528565b6105838185610533565b9350610593818560208601610544565b61059c81610388565b840191505092915050565b60006040820190506105bc6000830185610519565b81810360208301526105ce818461056e565b90509392505050565b7f4e487b7100000000000000000000000000000000000000000000000000000000600052603260045260246000fd5b7f4e487b7100000000000000000000000000000000000000000000000000000000600052602260045260246000fd5b6000600282049050600182168061064d57607f821691505b6020821081036106605761065f610606565b5b50919050565b60008190508160005260206000209050919050565b60006020601f8301049050919050565b600082821b905092915050565b6000600883026106c87fffffffffffffffffffffffffffffffffffffffffffffffffffffffffffffffff8261068b565b6106d2868361068b565b95508019841693508086168417925050509392505050565b6000819050919050565b600061070f61070a6107058461031b565b6106ea565b61031b565b9050919050565b6000819050919050565b610729836106f4565b61073d61073582610716565b848454610698565b825550505050565b600090565b610752610745565b61075d818484610720565b505050565b5b818110156107815761077660008261074a565b600181019050610763565b5050565b601f8211156107c65761079781610666565b6107a08461067b565b810160208510156107af578190505b6107c36107bb8561067b565b830182610762565b50505b505050565b600082821c905092915050565b60006107e9600019846008026107cb565b1980831691505092915050565b600061080283836107d8565b9150826002028217905092915050565b61081b82610528565b67ffffffffffffffff81111561083457610833610399565b5b61083e8254610635565b610849828285610785565b600060209050601f83116001811461087c576000841561086a578287015190505b61087485826107f6565b8655506108dc565b601f19841661088a86610666565b60005b828110156108b25784890151825560018201915060208501945060208101905061088d565b868310156108cf57848901516108cb601f8916826107d8565b8355505b6001600288020188555050505b50505050505056fea2646970667358221220bc5ab89e472a6d8aed9b8a30546cc0b17fb903ad85531a33e16dc496025538cf64736f6c63430008110033",
  "immutableReferences": {},
  "source": "//SPDX-License-Identifier: MIT\r\npragma solidity ^0.8.0;\r\n\r\ncontract TodoList {\r\n    struct Task {\r\n        bool completed;\r\n        string description;\r\n    }\r\n\r\n    Task[] public tasks;\r\n\r\n    function addTask(string memory _description) public {\r\n        tasks.push(Task(false, _description));\r\n    }\r\n\r\n    function markCompleted(uint _index) public {\r\n        tasks[_index].completed = true;\r\n    }\r\n\r\n    function deleteTask(uint _index) public {\r\n        delete tasks[_index];\r\n    }\r\n}\r\n",
  "sourcePath": "C:\\Users\\might\\Documents\\myproject\\contracts\\todo.sol",
  "compiler": {
    "name": "solc",
    "version": "0.8.17+commit.8df45f5f.Emscripten.clang"
  },
  "schemaVersion": "3.4.11",
  "updatedAt": "2022-12-28T12:14:17.737Z",
  "devdoc": {
    "kind": "dev",
    "methods": {},
    "version": 1
  },
  "userdoc": {
    "kind": "user",
    "methods": {},
    "version": 1
  }
}